{
  "_format": "hh-sol-artifact-1",
  "contractName": "Transactions",
  "sourceName": "contracts/Transactions.sol",
  "abi": [
    {
      "anonymous": false,
      "inputs": [
        {
          "indexed": true,
          "internalType": "address",
          "name": "from",
          "type": "address"
        },
        {
          "indexed": false,
          "internalType": "address",
          "name": "receiver",
          "type": "address"
        },
        {
          "indexed": false,
          "internalType": "uint256",
          "name": "amount",
          "type": "uint256"
        },
        {
          "indexed": false,
          "internalType": "string",
          "name": "message",
          "type": "string"
        },
        {
          "indexed": false,
          "internalType": "uint256",
          "name": "timestamp",
          "type": "uint256"
        },
        {
          "indexed": false,
          "internalType": "string",
          "name": "keyword",
          "type": "string"
        },
        {
          "indexed": false,
          "internalType": "string",
          "name": "txHash",
          "type": "string"
        }
      ],
      "name": "Transfer",
      "type": "event"
    },
    {
      "inputs": [
        {
          "internalType": "address payable",
          "name": "receiver",
          "type": "address"
        },
        {
          "internalType": "uint256",
          "name": "amount",
          "type": "uint256"
        },
        {
          "internalType": "string",
          "name": "message",
          "type": "string"
        },
        {
          "internalType": "string",
          "name": "keyword",
          "type": "string"
        },
        {
          "internalType": "string",
          "name": "txHash",
          "type": "string"
        }
      ],
      "name": "addToBlockchain",
      "outputs": [],
      "stateMutability": "nonpayable",
      "type": "function"
    },
    {
      "inputs": [],
      "name": "getAllTransactions",
      "outputs": [
        {
          "components": [
            {
              "internalType": "address",
              "name": "sender",
              "type": "address"
            },
            {
              "internalType": "address",
              "name": "receiver",
              "type": "address"
            },
            {
              "internalType": "uint256",
              "name": "amount",
              "type": "uint256"
            },
            {
              "internalType": "string",
              "name": "message",
              "type": "string"
            },
            {
              "internalType": "uint256",
              "name": "timestamp",
              "type": "uint256"
            },
            {
              "internalType": "string",
              "name": "keyword",
              "type": "string"
            },
            {
              "internalType": "string",
              "name": "txHash",
              "type": "string"
            }
          ],
          "internalType": "struct Transactions.TransferStruct[]",
          "name": "",
          "type": "tuple[]"
        }
      ],
      "stateMutability": "view",
      "type": "function"
    },
    {
      "inputs": [],
      "name": "getTransactionCount",
      "outputs": [
        {
          "internalType": "uint256",
          "name": "",
          "type": "uint256"
        }
      ],
      "stateMutability": "view",
      "type": "function"
    }
  ],
  "bytecode": "0x608060405234801561000f575f80fd5b50610eb18061001d5f395ff3fe608060405234801561000f575f80fd5b506004361061003f575f3560e01c806327506f53146100435780632e7700f014610061578063be9863a31461007f575b5f80fd5b61004b61009b565b604051610058919061078f565b60405180910390f35b610069610364565b60405161007691906107be565b60405180910390f35b61009960048036038101906100949190610979565b61036c565b005b60606001805480602002602001604051908101604052809291908181526020015f905b8282101561035b578382905f5260205f2090600702016040518060e00160405290815f82015f9054906101000a900473ffffffffffffffffffffffffffffffffffffffff1673ffffffffffffffffffffffffffffffffffffffff1673ffffffffffffffffffffffffffffffffffffffff168152602001600182015f9054906101000a900473ffffffffffffffffffffffffffffffffffffffff1673ffffffffffffffffffffffffffffffffffffffff1673ffffffffffffffffffffffffffffffffffffffff168152602001600282015481526020016003820180546101a290610a71565b80601f01602080910402602001604051908101604052809291908181526020018280546101ce90610a71565b80156102195780601f106101f057610100808354040283529160200191610219565b820191905f5260205f20905b8154815290600101906020018083116101fc57829003601f168201915b505050505081526020016004820154815260200160058201805461023c90610a71565b80601f016020809104026020016040519081016040528092919081815260200182805461026890610a71565b80156102b35780601f1061028a576101008083540402835291602001916102b3565b820191905f5260205f20905b81548152906001019060200180831161029657829003601f168201915b505050505081526020016006820180546102cc90610a71565b80601f01602080910402602001604051908101604052809291908181526020018280546102f890610a71565b80156103435780601f1061031a57610100808354040283529160200191610343565b820191905f5260205f20905b81548152906001019060200180831161032657829003601f168201915b505050505081525050815260200190600101906100be565b50505050905090565b5f8054905090565b60015f8082825461037d9190610ace565b9250508190555060016040518060e001604052803373ffffffffffffffffffffffffffffffffffffffff1681526020018773ffffffffffffffffffffffffffffffffffffffff16815260200186815260200185815260200142815260200184815260200183815250908060018154018082558091505060019003905f5260205f2090600702015f909190919091505f820151815f015f6101000a81548173ffffffffffffffffffffffffffffffffffffffff021916908373ffffffffffffffffffffffffffffffffffffffff1602179055506020820151816001015f6101000a81548173ffffffffffffffffffffffffffffffffffffffff021916908373ffffffffffffffffffffffffffffffffffffffff1602179055506040820151816002015560608201518160030190816104b49190610c9e565b506080820151816004015560a08201518160050190816104d49190610c9e565b5060c08201518160060190816104ea9190610c9e565b5050503373ffffffffffffffffffffffffffffffffffffffff167f21ec5b3f3e6c597e1a0d1650e5545618667a89bf7d7341cc53e38673d3dede3286868642878760405161053d96959493929190610e07565b60405180910390a25050505050565b5f81519050919050565b5f82825260208201905092915050565b5f819050602082019050919050565b5f73ffffffffffffffffffffffffffffffffffffffff82169050919050565b5f61059e82610575565b9050919050565b6105ae81610594565b82525050565b5f819050919050565b6105c6816105b4565b82525050565b5f81519050919050565b5f82825260208201905092915050565b5f5b838110156106035780820151818401526020810190506105e8565b5f8484015250505050565b5f601f19601f8301169050919050565b5f610628826105cc565b61063281856105d6565b93506106428185602086016105e6565b61064b8161060e565b840191505092915050565b5f60e083015f83015161066b5f8601826105a5565b50602083015161067e60208601826105a5565b50604083015161069160408601826105bd565b50606083015184820360608601526106a9828261061e565b91505060808301516106be60808601826105bd565b5060a083015184820360a08601526106d6828261061e565b91505060c083015184820360c08601526106f0828261061e565b9150508091505092915050565b5f6107088383610656565b905092915050565b5f602082019050919050565b5f6107268261054c565b6107308185610556565b93508360208202850161074285610566565b805f5b8581101561077d578484038952815161075e85826106fd565b945061076983610710565b925060208a01995050600181019050610745565b50829750879550505050505092915050565b5f6020820190508181035f8301526107a7818461071c565b905092915050565b6107b8816105b4565b82525050565b5f6020820190506107d15f8301846107af565b92915050565b5f604051905090565b5f80fd5b5f80fd5b5f6107f282610575565b9050919050565b610802816107e8565b811461080c575f80fd5b50565b5f8135905061081d816107f9565b92915050565b61082c816105b4565b8114610836575f80fd5b50565b5f8135905061084781610823565b92915050565b5f80fd5b5f80fd5b7f4e487b71000000000000000000000000000000000000000000000000000000005f52604160045260245ffd5b61088b8261060e565b810181811067ffffffffffffffff821117156108aa576108a9610855565b5b80604052505050565b5f6108bc6107d7565b90506108c88282610882565b919050565b5f67ffffffffffffffff8211156108e7576108e6610855565b5b6108f08261060e565b9050602081019050919050565b828183375f83830152505050565b5f61091d610918846108cd565b6108b3565b90508281526020810184848401111561093957610938610851565b5b6109448482856108fd565b509392505050565b5f82601f8301126109605761095f61084d565b5b813561097084826020860161090b565b91505092915050565b5f805f805f60a08688031215610992576109916107e0565b5b5f61099f8882890161080f565b95505060206109b088828901610839565b945050604086013567ffffffffffffffff8111156109d1576109d06107e4565b5b6109dd8882890161094c565b935050606086013567ffffffffffffffff8111156109fe576109fd6107e4565b5b610a0a8882890161094c565b925050608086013567ffffffffffffffff811115610a2b57610a2a6107e4565b5b610a378882890161094c565b9150509295509295909350565b7f4e487b71000000000000000000000000000000000000000000000000000000005f52602260045260245ffd5b5f6002820490506001821680610a8857607f821691505b602082108103610a9b57610a9a610a44565b5b50919050565b7f4e487b71000000000000000000000000000000000000000000000000000000005f52601160045260245ffd5b5f610ad8826105b4565b9150610ae3836105b4565b9250828201905080821115610afb57610afa610aa1565b5b92915050565b5f819050815f5260205f209050919050565b5f6020601f8301049050919050565b5f82821b905092915050565b5f60088302610b5d7fffffffffffffffffffffffffffffffffffffffffffffffffffffffffffffffff82610b22565b610b678683610b22565b95508019841693508086168417925050509392505050565b5f819050919050565b5f610ba2610b9d610b98846105b4565b610b7f565b6105b4565b9050919050565b5f819050919050565b610bbb83610b88565b610bcf610bc782610ba9565b848454610b2e565b825550505050565b5f90565b610be3610bd7565b610bee818484610bb2565b505050565b5b81811015610c1157610c065f82610bdb565b600181019050610bf4565b5050565b601f821115610c5657610c2781610b01565b610c3084610b13565b81016020851015610c3f578190505b610c53610c4b85610b13565b830182610bf3565b50505b505050565b5f82821c905092915050565b5f610c765f1984600802610c5b565b1980831691505092915050565b5f610c8e8383610c67565b9150826002028217905092915050565b610ca7826105cc565b67ffffffffffffffff811115610cc057610cbf610855565b5b610cca8254610a71565b610cd5828285610c15565b5f60209050601f831160018114610d06575f8415610cf4578287015190505b610cfe8582610c83565b865550610d65565b601f198416610d1486610b01565b5f5b82811015610d3b57848901518255600182019150602085019450602081019050610d16565b86831015610d585784890151610d54601f891682610c67565b8355505b6001600288020188555050505b505050505050565b5f610d87610d82610d7d84610575565b610b7f565b610575565b9050919050565b5f610d9882610d6d565b9050919050565b5f610da982610d8e565b9050919050565b610db981610d9f565b82525050565b5f82825260208201905092915050565b5f610dd9826105cc565b610de38185610dbf565b9350610df38185602086016105e6565b610dfc8161060e565b840191505092915050565b5f60c082019050610e1a5f830189610db0565b610e2760208301886107af565b8181036040830152610e398187610dcf565b9050610e4860608301866107af565b8181036080830152610e5a8185610dcf565b905081810360a0830152610e6e8184610dcf565b905097965050505050505056fea26469706673582212200d58ad3b7dc9bb487e8fccc8cab1a69ff2675f3119198ff0b7bfaf83b444358564736f6c63430008140033",
  "linkReferences": {},
  "deployedLinkReferences": {}
}